{
  "contractName": "Main",
  "abi": [
    {
      "constant": true,
      "inputs": [
        {
          "name": "",
          "type": "address"
        }
      ],
      "name": "participants",
      "outputs": [
        {
          "name": "account",
          "type": "address"
        },
        {
          "name": "fullname",
          "type": "string"
        },
        {
          "name": "email",
          "type": "string"
        },
        {
          "name": "nSessions",
          "type": "uint256"
        },
        {
          "name": "deviation",
          "type": "uint256"
        },
        {
          "name": "isMember",
          "type": "bool"
        }
      ],
      "payable": false,
      "stateMutability": "view",
      "type": "function"
    },
    {
      "constant": true,
      "inputs": [],
      "name": "nSessions",
      "outputs": [
        {
          "name": "",
          "type": "uint256"
        }
      ],
      "payable": false,
      "stateMutability": "view",
      "type": "function"
    },
    {
      "constant": true,
      "inputs": [
        {
          "name": "",
          "type": "uint256"
        }
      ],
      "name": "sessions",
      "outputs": [
        {
          "name": "",
          "type": "address"
        }
      ],
      "payable": false,
      "stateMutability": "view",
      "type": "function"
    },
    {
      "constant": true,
      "inputs": [
        {
          "name": "",
          "type": "uint256"
        }
      ],
      "name": "iParticipants",
      "outputs": [
        {
          "name": "",
          "type": "address"
        }
      ],
      "payable": false,
      "stateMutability": "view",
      "type": "function"
    },
    {
      "constant": true,
      "inputs": [],
      "name": "nParticipants",
      "outputs": [
        {
          "name": "",
          "type": "uint256"
        }
      ],
      "payable": false,
      "stateMutability": "view",
      "type": "function"
    },
    {
      "constant": true,
      "inputs": [],
      "name": "admin",
      "outputs": [
        {
          "name": "",
          "type": "address"
        }
      ],
      "payable": false,
      "stateMutability": "view",
      "type": "function"
    },
    {
      "inputs": [],
      "payable": false,
      "stateMutability": "nonpayable",
      "type": "constructor"
    },
    {
      "anonymous": false,
      "inputs": [
        {
          "indexed": false,
          "name": "account",
          "type": "address"
        },
        {
          "indexed": false,
          "name": "fullname",
          "type": "string"
        },
        {
          "indexed": false,
          "name": "email",
          "type": "string"
        },
        {
          "indexed": false,
          "name": "nSessions",
          "type": "uint256"
        },
        {
          "indexed": false,
          "name": "deviation",
          "type": "uint256"
        }
      ],
      "name": "ProfileDetailOfParticipant",
      "type": "event"
    },
    {
      "constant": false,
      "inputs": [
        {
          "name": "_session",
          "type": "address"
        }
      ],
      "name": "addSession",
      "outputs": [],
      "payable": false,
      "stateMutability": "nonpayable",
      "type": "function"
    },
    {
      "constant": false,
      "inputs": [],
      "name": "getAdmin",
      "outputs": [
        {
          "name": "",
          "type": "address"
        }
      ],
      "payable": false,
      "stateMutability": "nonpayable",
      "type": "function"
    },
    {
      "constant": false,
      "inputs": [
        {
          "name": "_address",
          "type": "address"
        }
      ],
      "name": "getDeviation",
      "outputs": [
        {
          "name": "",
          "type": "uint256"
        }
      ],
      "payable": false,
      "stateMutability": "nonpayable",
      "type": "function"
    },
    {
      "constant": false,
      "inputs": [
        {
          "name": "_address",
          "type": "address"
        }
      ],
      "name": "isMember",
      "outputs": [
        {
          "name": "",
          "type": "bool"
        }
      ],
      "payable": false,
      "stateMutability": "nonpayable",
      "type": "function"
    },
    {
      "constant": false,
      "inputs": [
        {
          "name": "_address",
          "type": "address"
        },
        {
          "name": "_newDevi",
          "type": "uint256"
        }
      ],
      "name": "updateInfor",
      "outputs": [],
      "payable": false,
      "stateMutability": "nonpayable",
      "type": "function"
    },
    {
      "constant": false,
      "inputs": [
        {
          "name": "_fullname",
          "type": "string"
        },
        {
          "name": "_email",
          "type": "string"
        }
      ],
      "name": "register",
      "outputs": [],
      "payable": false,
      "stateMutability": "nonpayable",
      "type": "function"
    }
  ],
  "bytecode": "0x608060405234801561001057600080fd5b5033600160006101000a81548173ffffffffffffffffffffffffffffffffffffffff021916908373ffffffffffffffffffffffffffffffffffffffff160217905550610e9b806100616000396000f3006080604052600436106100ba576000357c0100000000000000000000000000000000000000000000000000000000900463ffffffff16806309e69ede146100bf5780633ffbd47f14610233578063454eed7d146102e25780636e9960c31461030d57806383c4b7a314610364578063a230c524146103d1578063a33a08b91461042c578063a3b9c9e514610483578063b63bc3b4146104f0578063c454fde81461051b578063f390dd8614610568578063f851a440146105ab575b600080fd5b3480156100cb57600080fd5b50610100600480360381019080803573ffffffffffffffffffffffffffffffffffffffff169060200190929190505050610602565b604051808773ffffffffffffffffffffffffffffffffffffffff1673ffffffffffffffffffffffffffffffffffffffff168152602001806020018060200186815260200185815260200184151515158152602001838103835288818151815260200191508051906020019080838360005b8381101561018c578082015181840152602081019050610171565b50505050905090810190601f1680156101b95780820380516001836020036101000a031916815260200191505b50838103825287818151815260200191508051906020019080838360005b838110156101f25780820151818401526020810190506101d7565b50505050905090810190601f16801561021f5780820380516001836020036101000a031916815260200191505b509850505050505050505060405180910390f35b34801561023f57600080fd5b506102e0600480360381019080803590602001908201803590602001908080601f0160208091040260200160405190810160405280939291908181526020018383808284378201915050505050509192919290803590602001908201803590602001908080601f016020809104026020016040519081016040528093929190818152602001838380828437820191505050505050919291929050505061079b565b005b3480156102ee57600080fd5b506102f7610a8e565b6040518082815260200191505060405180910390f35b34801561031957600080fd5b50610322610a94565b604051808273ffffffffffffffffffffffffffffffffffffffff1673ffffffffffffffffffffffffffffffffffffffff16815260200191505060405180910390f35b34801561037057600080fd5b5061038f60048036038101908080359060200190929190505050610abe565b604051808273ffffffffffffffffffffffffffffffffffffffff1673ffffffffffffffffffffffffffffffffffffffff16815260200191505060405180910390f35b3480156103dd57600080fd5b50610412600480360381019080803573ffffffffffffffffffffffffffffffffffffffff169060200190929190505050610afc565b604051808215151515815260200191505060405180910390f35b34801561043857600080fd5b5061046d600480360381019080803573ffffffffffffffffffffffffffffffffffffffff169060200190929190505050610b55565b6040518082815260200191505060405180910390f35b34801561048f57600080fd5b506104ae60048036038101908080359060200190929190505050610ba1565b604051808273ffffffffffffffffffffffffffffffffffffffff1673ffffffffffffffffffffffffffffffffffffffff16815260200191505060405180910390f35b3480156104fc57600080fd5b50610505610bdf565b6040518082815260200191505060405180910390f35b34801561052757600080fd5b50610566600480360381019080803573ffffffffffffffffffffffffffffffffffffffff16906020019092919080359060200190929190505050610be5565b005b34801561057457600080fd5b506105a9600480360381019080803573ffffffffffffffffffffffffffffffffffffffff169060200190929190505050610d29565b005b3480156105b757600080fd5b506105c0610da4565b604051808273ffffffffffffffffffffffffffffffffffffffff1673ffffffffffffffffffffffffffffffffffffffff16815260200191505060405180910390f35b60026020528060005260406000206000915090508060000160009054906101000a900473ffffffffffffffffffffffffffffffffffffffff1690806001018054600181600116156101000203166002900480601f0160208091040260200160405190810160405280929190818152602001828054600181600116156101000203166002900480156106d45780601f106106a9576101008083540402835291602001916106d4565b820191906000526020600020905b8154815290600101906020018083116106b757829003601f168201915b505050505090806002018054600181600116156101000203166002900480601f0160208091040260200160405190810160405280929190818152602001828054600181600116156101000203166002900480156107725780601f1061074757610100808354040283529160200191610772565b820191906000526020600020905b81548152906001019060200180831161075557829003601f168201915b5050505050908060030154908060040154908060050160009054906101000a900460ff16905086565b6000339050600260008273ffffffffffffffffffffffffffffffffffffffff1673ffffffffffffffffffffffffffffffffffffffff16815260200190815260200160002060050160009054906101000a900460ff16151561095a576001600260008373ffffffffffffffffffffffffffffffffffffffff1673ffffffffffffffffffffffffffffffffffffffff16815260200190815260200160002060050160006101000a81548160ff0219169083151502179055506000600260008373ffffffffffffffffffffffffffffffffffffffff1673ffffffffffffffffffffffffffffffffffffffff168152602001908152602001600020600301819055506000600260008373ffffffffffffffffffffffffffffffffffffffff1673ffffffffffffffffffffffffffffffffffffffff1681526020019081526020016000206004018190555060058190806001815401808255809150509060018203906000526020600020016000909192909190916101000a81548173ffffffffffffffffffffffffffffffffffffffff021916908373ffffffffffffffffffffffffffffffffffffffff160217905550506003600081548092919060010191905055505b80600260008373ffffffffffffffffffffffffffffffffffffffff1673ffffffffffffffffffffffffffffffffffffffff16815260200190815260200160002060000160006101000a81548173ffffffffffffffffffffffffffffffffffffffff021916908373ffffffffffffffffffffffffffffffffffffffff16021790555082600260008373ffffffffffffffffffffffffffffffffffffffff1673ffffffffffffffffffffffffffffffffffffffff1681526020019081526020016000206001019080519060200190610a31929190610dca565b5081600260008373ffffffffffffffffffffffffffffffffffffffff1673ffffffffffffffffffffffffffffffffffffffff1681526020019081526020016000206002019080519060200190610a88929190610dca565b50505050565b60045481565b6000600160009054906101000a900473ffffffffffffffffffffffffffffffffffffffff16905090565b600081815481101515610acd57fe5b906000526020600020016000915054906101000a900473ffffffffffffffffffffffffffffffffffffffff1681565b6000600260008373ffffffffffffffffffffffffffffffffffffffff1673ffffffffffffffffffffffffffffffffffffffff16815260200190815260200160002060050160009054906101000a900460ff169050919050565b6000600260008373ffffffffffffffffffffffffffffffffffffffff1673ffffffffffffffffffffffffffffffffffffffff168152602001908152602001600020600401549050919050565b600581815481101515610bb057fe5b906000526020600020016000915054906101000a900473ffffffffffffffffffffffffffffffffffffffff1681565b60035481565b6000806000600260008673ffffffffffffffffffffffffffffffffffffffff1673ffffffffffffffffffffffffffffffffffffffff168152602001908152602001600020600401549250600260008673ffffffffffffffffffffffffffffffffffffffff1673ffffffffffffffffffffffffffffffffffffffff168152602001908152602001600020600301549150600182018483850201811515610c8657fe5b04905080600260008773ffffffffffffffffffffffffffffffffffffffff1673ffffffffffffffffffffffffffffffffffffffff16815260200190815260200160002060040181905550600260008673ffffffffffffffffffffffffffffffffffffffff1673ffffffffffffffffffffffffffffffffffffffff168152602001908152602001600020600301600081548092919060010191905055505050505050565b60008190806001815401808255809150509060018203906000526020600020016000909192909190916101000a81548173ffffffffffffffffffffffffffffffffffffffff021916908373ffffffffffffffffffffffffffffffffffffffff1602179055505060046000815480929190600101919050555050565b600160009054906101000a900473ffffffffffffffffffffffffffffffffffffffff1681565b828054600181600116156101000203166002900490600052602060002090601f016020900481019282601f10610e0b57805160ff1916838001178555610e39565b82800160010185558215610e39579182015b82811115610e38578251825591602001919060010190610e1d565b5b509050610e469190610e4a565b5090565b610e6c91905b80821115610e68576000816000905550600101610e50565b5090565b905600a165627a7a72305820b2c0691cae06d3becce8675e5c4cc009f1df92a49aaa57df97da5b74eda1dff10029",
  "source": "pragma solidity ^0.4.17;\n\ncontract Main {\n\n    // Structure to hold details of Bidder\n    struct IParticipant {\n        // TODO\n        address account;\n        string fullname;\n        string email;\n        uint nSessions;\n        uint deviation;\n        bool isMember;\n    }\n\n    address[] public sessions;\n    address public admin; // Admin account is the account deploy the main smart contract\n    mapping(address => IParticipant) public participants;\n    uint public nParticipants;\n    uint public nSessions; // Get number of sessions\n    address[] public iParticipants;\n\n    event ProfileDetailOfParticipant (\n        address account,\n        string fullname,\n        string email,\n        uint nSessions,\n        uint deviation\n    );\n    // TODO: Variables\n\n    constructor() public {\n        admin = msg.sender;\n    }\n\n\n    // Add a Session Contract address into Main Contract. Use to link Session with Main\n    function addSession(address _session) public {\n        // TODO\n        sessions.push(_session);\n        nSessions ++;\n    }\n\n    function getAdmin() public returns(address) {\n        return admin;\n    }\n\n    function getDeviation(address _address) public returns(uint) {\n        return participants[_address].deviation;\n    }\n\n    function isMember(address _address) public returns(bool) {\n        return participants[_address].isMember;\n    }\n\n    // Update participants information when closed session\n    function updateInfor(address _address, uint _newDevi) public {\n        uint _currentDevi = participants[_address].deviation;\n        uint _nSessions = participants[_address].nSessions;\n        uint _deviUpdate = (_currentDevi * _nSessions + _newDevi) / uint((_nSessions + 1));\n        participants[_address].deviation = _deviUpdate;  // update deviation of participant\n        participants[_address].nSessions ++;   // Update number session participant had join\n    }\n\n    // TODO: Functions\n    /**\n     *  Function register participant\n     */\n    function register(string memory _fullname, string memory _email) public {\n        address _userAddress = msg.sender;\n        if(!participants[_userAddress].isMember) {\n            participants[_userAddress].isMember = true;\n            participants[_userAddress].nSessions = 0;\n            participants[_userAddress].deviation = 0;\n            iParticipants.push(_userAddress);\n            nParticipants ++;\n        }\n        participants[_userAddress].account = _userAddress;\n        participants[_userAddress].fullname = _fullname;\n        participants[_userAddress].email = _email;\n    }\n\n    // modifier -------------------\n\n    // Only amdin can do this action.\n    modifier onlyAdmin() {\n        require(admin == msg.sender);\n        _;\n    }\n}\n",
  "sourcePath": "D:/FunixPricingChain_Project/FunixPricingChain/truffle/contracts/Main.sol",
  "compiler": {
    "name": "solc",
    "version": "0.4.26+commit.4563c3fc.Emscripten.clang"
  },
  "schemaVersion": "3.0.11",
  "updatedAt": "2019-12-29T07:15:55.606Z",
  "devdoc": {
    "methods": {}
  },
  "userdoc": {
    "methods": {
      "register(string,string)": {
        "notice": "Function register participant"
      }
    }
  }
}