{
  "contractName": "Main",
  "abi": [
    {
      "constant": true,
      "inputs": [
        {
          "name": "",
          "type": "address"
        }
      ],
      "name": "participants",
      "outputs": [
        {
          "name": "account",
          "type": "address"
        },
        {
          "name": "fullname",
          "type": "string"
        },
        {
          "name": "email",
          "type": "string"
        },
        {
          "name": "nSessions",
          "type": "uint256"
        },
        {
          "name": "deviation",
          "type": "uint256"
        },
        {
          "name": "isMember",
          "type": "bool"
        }
      ],
      "payable": false,
      "stateMutability": "view",
      "type": "function"
    },
    {
      "constant": true,
      "inputs": [],
      "name": "nSessions",
      "outputs": [
        {
          "name": "",
          "type": "uint256"
        }
      ],
      "payable": false,
      "stateMutability": "view",
      "type": "function"
    },
    {
      "constant": true,
      "inputs": [
        {
          "name": "",
          "type": "uint256"
        }
      ],
      "name": "sessions",
      "outputs": [
        {
          "name": "",
          "type": "address"
        }
      ],
      "payable": false,
      "stateMutability": "view",
      "type": "function"
    },
    {
      "inputs": [],
      "payable": false,
      "stateMutability": "nonpayable",
      "type": "constructor"
    },
    {
      "constant": false,
      "inputs": [
        {
          "name": "_session",
          "type": "address"
        }
      ],
      "name": "addSession",
      "outputs": [],
      "payable": false,
      "stateMutability": "nonpayable",
      "type": "function"
    },
    {
      "constant": true,
      "inputs": [],
      "name": "getAdmin",
      "outputs": [
        {
          "name": "",
          "type": "address"
        }
      ],
      "payable": false,
      "stateMutability": "view",
      "type": "function"
    },
    {
      "constant": true,
      "inputs": [
        {
          "name": "_address",
          "type": "address"
        }
      ],
      "name": "getDeviation",
      "outputs": [
        {
          "name": "",
          "type": "uint256"
        }
      ],
      "payable": false,
      "stateMutability": "view",
      "type": "function"
    },
    {
      "constant": true,
      "inputs": [
        {
          "name": "_address",
          "type": "address"
        }
      ],
      "name": "isMember",
      "outputs": [
        {
          "name": "",
          "type": "bool"
        }
      ],
      "payable": false,
      "stateMutability": "view",
      "type": "function"
    },
    {
      "constant": true,
      "inputs": [],
      "name": "getNParti",
      "outputs": [
        {
          "name": "",
          "type": "uint256"
        }
      ],
      "payable": false,
      "stateMutability": "view",
      "type": "function"
    },
    {
      "constant": true,
      "inputs": [
        {
          "name": "_index",
          "type": "uint256"
        }
      ],
      "name": "getIParti",
      "outputs": [
        {
          "name": "",
          "type": "address"
        }
      ],
      "payable": false,
      "stateMutability": "view",
      "type": "function"
    },
    {
      "constant": false,
      "inputs": [
        {
          "name": "_address",
          "type": "address"
        },
        {
          "name": "_newDevi",
          "type": "uint256"
        }
      ],
      "name": "updateInfor",
      "outputs": [],
      "payable": false,
      "stateMutability": "nonpayable",
      "type": "function"
    },
    {
      "constant": false,
      "inputs": [
        {
          "name": "_fullname",
          "type": "string"
        },
        {
          "name": "_email",
          "type": "string"
        }
      ],
      "name": "register",
      "outputs": [],
      "payable": false,
      "stateMutability": "nonpayable",
      "type": "function"
    }
  ],
  "bytecode": "0x608060405234801561001057600080fd5b5033600160006101000a81548173ffffffffffffffffffffffffffffffffffffffff021916908373ffffffffffffffffffffffffffffffffffffffff160217905550610ed4806100616000396000f3006080604052600436106100af576000357c0100000000000000000000000000000000000000000000000000000000900463ffffffff16806309e69ede146100b45780633ffbd47f14610228578063454eed7d146102d75780636e9960c3146103025780637c5d44d21461035957806381581bb7146103c657806383c4b7a3146103f1578063a230c5241461045e578063a33a08b9146104b9578063c454fde814610510578063f390dd861461055d575b600080fd5b3480156100c057600080fd5b506100f5600480360381019080803573ffffffffffffffffffffffffffffffffffffffff1690602001909291905050506105a0565b604051808773ffffffffffffffffffffffffffffffffffffffff1673ffffffffffffffffffffffffffffffffffffffff168152602001806020018060200186815260200185815260200184151515158152602001838103835288818151815260200191508051906020019080838360005b83811015610181578082015181840152602081019050610166565b50505050905090810190601f1680156101ae5780820380516001836020036101000a031916815260200191505b50838103825287818151815260200191508051906020019080838360005b838110156101e75780820151818401526020810190506101cc565b50505050905090810190601f1680156102145780820380516001836020036101000a031916815260200191505b509850505050505050505060405180910390f35b34801561023457600080fd5b506102d5600480360381019080803590602001908201803590602001908080601f0160208091040260200160405190810160405280939291908181526020018383808284378201915050505050509192919290803590602001908201803590602001908080601f0160208091040260200160405190810160405280939291908181526020018383808284378201915050505050509192919290505050610739565b005b3480156102e357600080fd5b506102ec610a2c565b6040518082815260200191505060405180910390f35b34801561030e57600080fd5b50610317610a32565b604051808273ffffffffffffffffffffffffffffffffffffffff1673ffffffffffffffffffffffffffffffffffffffff16815260200191505060405180910390f35b34801561036557600080fd5b5061038460048036038101908080359060200190929190505050610a5c565b604051808273ffffffffffffffffffffffffffffffffffffffff1673ffffffffffffffffffffffffffffffffffffffff16815260200191505060405180910390f35b3480156103d257600080fd5b506103db610afb565b6040518082815260200191505060405180910390f35b3480156103fd57600080fd5b5061041c60048036038101908080359060200190929190505050610b61565b604051808273ffffffffffffffffffffffffffffffffffffffff1673ffffffffffffffffffffffffffffffffffffffff16815260200191505060405180910390f35b34801561046a57600080fd5b5061049f600480360381019080803573ffffffffffffffffffffffffffffffffffffffff169060200190929190505050610b9f565b604051808215151515815260200191505060405180910390f35b3480156104c557600080fd5b506104fa600480360381019080803573ffffffffffffffffffffffffffffffffffffffff169060200190929190505050610bf8565b6040518082815260200191505060405180910390f35b34801561051c57600080fd5b5061055b600480360381019080803573ffffffffffffffffffffffffffffffffffffffff16906020019092919080359060200190929190505050610c44565b005b34801561056957600080fd5b5061059e600480360381019080803573ffffffffffffffffffffffffffffffffffffffff169060200190929190505050610d88565b005b60026020528060005260406000206000915090508060000160009054906101000a900473ffffffffffffffffffffffffffffffffffffffff1690806001018054600181600116156101000203166002900480601f0160208091040260200160405190810160405280929190818152602001828054600181600116156101000203166002900480156106725780601f1061064757610100808354040283529160200191610672565b820191906000526020600020905b81548152906001019060200180831161065557829003601f168201915b505050505090806002018054600181600116156101000203166002900480601f0160208091040260200160405190810160405280929190818152602001828054600181600116156101000203166002900480156107105780601f106106e557610100808354040283529160200191610710565b820191906000526020600020905b8154815290600101906020018083116106f357829003601f168201915b5050505050908060030154908060040154908060050160009054906101000a900460ff16905086565b6000339050600260008273ffffffffffffffffffffffffffffffffffffffff1673ffffffffffffffffffffffffffffffffffffffff16815260200190815260200160002060050160009054906101000a900460ff1615156108f8576001600260008373ffffffffffffffffffffffffffffffffffffffff1673ffffffffffffffffffffffffffffffffffffffff16815260200190815260200160002060050160006101000a81548160ff0219169083151502179055506000600260008373ffffffffffffffffffffffffffffffffffffffff1673ffffffffffffffffffffffffffffffffffffffff168152602001908152602001600020600301819055506000600260008373ffffffffffffffffffffffffffffffffffffffff1673ffffffffffffffffffffffffffffffffffffffff1681526020019081526020016000206004018190555060058190806001815401808255809150509060018203906000526020600020016000909192909190916101000a81548173ffffffffffffffffffffffffffffffffffffffff021916908373ffffffffffffffffffffffffffffffffffffffff160217905550506003600081548092919060010191905055505b80600260008373ffffffffffffffffffffffffffffffffffffffff1673ffffffffffffffffffffffffffffffffffffffff16815260200190815260200160002060000160006101000a81548173ffffffffffffffffffffffffffffffffffffffff021916908373ffffffffffffffffffffffffffffffffffffffff16021790555082600260008373ffffffffffffffffffffffffffffffffffffffff1673ffffffffffffffffffffffffffffffffffffffff16815260200190815260200160002060010190805190602001906109cf929190610e03565b5081600260008373ffffffffffffffffffffffffffffffffffffffff1673ffffffffffffffffffffffffffffffffffffffff1681526020019081526020016000206002019080519060200190610a26929190610e03565b50505050565b60045481565b6000600160009054906101000a900473ffffffffffffffffffffffffffffffffffffffff16905090565b60003373ffffffffffffffffffffffffffffffffffffffff16600160009054906101000a900473ffffffffffffffffffffffffffffffffffffffff1673ffffffffffffffffffffffffffffffffffffffff16141515610aba57600080fd5b600582815481101515610ac957fe5b9060005260206000200160009054906101000a900473ffffffffffffffffffffffffffffffffffffffff169050919050565b60003373ffffffffffffffffffffffffffffffffffffffff16600160009054906101000a900473ffffffffffffffffffffffffffffffffffffffff1673ffffffffffffffffffffffffffffffffffffffff16141515610b5957600080fd5b600354905090565b600081815481101515610b7057fe5b906000526020600020016000915054906101000a900473ffffffffffffffffffffffffffffffffffffffff1681565b6000600260008373ffffffffffffffffffffffffffffffffffffffff1673ffffffffffffffffffffffffffffffffffffffff16815260200190815260200160002060050160009054906101000a900460ff169050919050565b6000600260008373ffffffffffffffffffffffffffffffffffffffff1673ffffffffffffffffffffffffffffffffffffffff168152602001908152602001600020600401549050919050565b6000806000600260008673ffffffffffffffffffffffffffffffffffffffff1673ffffffffffffffffffffffffffffffffffffffff168152602001908152602001600020600401549250600260008673ffffffffffffffffffffffffffffffffffffffff1673ffffffffffffffffffffffffffffffffffffffff168152602001908152602001600020600301549150600182018483850201811515610ce557fe5b04905080600260008773ffffffffffffffffffffffffffffffffffffffff1673ffffffffffffffffffffffffffffffffffffffff16815260200190815260200160002060040181905550600260008673ffffffffffffffffffffffffffffffffffffffff1673ffffffffffffffffffffffffffffffffffffffff168152602001908152602001600020600301600081548092919060010191905055505050505050565b60008190806001815401808255809150509060018203906000526020600020016000909192909190916101000a81548173ffffffffffffffffffffffffffffffffffffffff021916908373ffffffffffffffffffffffffffffffffffffffff1602179055505060046000815480929190600101919050555050565b828054600181600116156101000203166002900490600052602060002090601f016020900481019282601f10610e4457805160ff1916838001178555610e72565b82800160010185558215610e72579182015b82811115610e71578251825591602001919060010190610e56565b5b509050610e7f9190610e83565b5090565b610ea591905b80821115610ea1576000816000905550600101610e89565b5090565b905600a165627a7a7230582044f2e6a5109b6a285d48158e51bce6deb4282cab02f2b2980be47d58a601965e0029",
  "source": "pragma solidity ^0.4.17;\r\n\r\ncontract Main {\r\n\r\n    // Structure to hold details of Bidder\r\n    struct IParticipant {\r\n        // TODO\r\n        address account;\r\n        string fullname;\r\n        string email;\r\n        uint nSessions;\r\n        uint deviation;\r\n        bool isMember;\r\n    }\r\n\r\n    address[] public sessions;\r\n    address private admin; // Admin account is the account deploy the main smart contract\r\n    mapping(address => IParticipant) public participants;\r\n    uint private nParticipants;\r\n    uint public nSessions; // Get number of sessions\r\n    address[] private iParticipants;\r\n    \r\n    // TODO: Variables\r\n\r\n    constructor() public {\r\n        admin = msg.sender;\r\n    }\r\n\r\n\r\n    // Add a Session Contract address into Main Contract. Use to link Session with Main\r\n    function addSession(address _session) public {\r\n        sessions.push(_session);\r\n        nSessions ++;\r\n    }\r\n\r\n    function getAdmin() public view returns(address) {\r\n        return admin;\r\n    }\r\n\r\n    function getDeviation(address _address) public view returns(uint) {\r\n        return participants[_address].deviation;\r\n    }\r\n\r\n    function isMember(address _address) public view returns(bool) {\r\n        return participants[_address].isMember;\r\n    }\r\n\r\n    function getNParti() public view onlyAdmin() returns(uint) {\r\n        return nParticipants;\r\n    }\r\n\r\n    function getIParti(uint _index) public view onlyAdmin() returns(address) {\r\n        return iParticipants[_index];\r\n    }\r\n\r\n    // Update participants information when closed session\r\n    function updateInfor(address _address, uint _newDevi) public {\r\n        uint _currentDevi = participants[_address].deviation;\r\n        uint _nSessions = participants[_address].nSessions;\r\n        uint _deviUpdate = (_currentDevi * _nSessions + _newDevi) / uint((_nSessions + 1));\r\n        participants[_address].deviation = _deviUpdate;  // update deviation of participant\r\n        participants[_address].nSessions ++;   // Update number session participant had join\r\n    }\r\n\r\n    // TODO: Functions\r\n    /**\r\n     *  Function register participant\r\n     */\r\n    function register(string memory _fullname, string memory _email) public {\r\n        address _userAddress = msg.sender;\r\n        if(!participants[_userAddress].isMember) {\r\n            participants[_userAddress].isMember = true;\r\n            participants[_userAddress].nSessions = 0;\r\n            participants[_userAddress].deviation = 0;\r\n            iParticipants.push(_userAddress);\r\n            nParticipants ++;\r\n        }\r\n        participants[_userAddress].account = _userAddress;\r\n        participants[_userAddress].fullname = _fullname;\r\n        participants[_userAddress].email = _email;\r\n    }\r\n    // modifier -------------------\r\n\r\n    // Only amdin can do this action.\r\n    modifier onlyAdmin() {\r\n        require(admin == msg.sender);\r\n        _;\r\n    }\r\n}\r\n",
  "sourcePath": "D:/FunixPricingChain_Project/Pricing-Blockchain/truffle/contracts/Main.sol",
  "compiler": {
    "name": "solc",
    "version": "0.4.26+commit.4563c3fc.Emscripten.clang"
  },
  "schemaVersion": "3.0.11",
  "updatedAt": "2020-01-05T14:38:41.149Z",
  "devdoc": {
    "methods": {}
  },
  "userdoc": {
    "methods": {
      "register(string,string)": {
        "notice": "Function register participant\r"
      }
    }
  }
}