{
  "contractName": "Session",
  "abi": [
    {
      "constant": true,
      "inputs": [
        {
          "name": "",
          "type": "address"
        }
      ],
      "name": "participant",
      "outputs": [
        {
          "name": "account",
          "type": "address"
        },
        {
          "name": "deviation",
          "type": "uint256"
        },
        {
          "name": "price",
          "type": "uint256"
        }
      ],
      "payable": false,
      "stateMutability": "view",
      "type": "function"
    },
    {
      "constant": true,
      "inputs": [],
      "name": "timeOut",
      "outputs": [
        {
          "name": "",
          "type": "uint256"
        }
      ],
      "payable": false,
      "stateMutability": "view",
      "type": "function"
    },
    {
      "constant": true,
      "inputs": [
        {
          "name": "",
          "type": "uint256"
        }
      ],
      "name": "iParticipants",
      "outputs": [
        {
          "name": "",
          "type": "address"
        }
      ],
      "payable": false,
      "stateMutability": "view",
      "type": "function"
    },
    {
      "constant": true,
      "inputs": [],
      "name": "sessionContract",
      "outputs": [
        {
          "name": "",
          "type": "address"
        }
      ],
      "payable": false,
      "stateMutability": "view",
      "type": "function"
    },
    {
      "constant": true,
      "inputs": [],
      "name": "nParticipants",
      "outputs": [
        {
          "name": "",
          "type": "uint256"
        }
      ],
      "payable": false,
      "stateMutability": "view",
      "type": "function"
    },
    {
      "constant": true,
      "inputs": [],
      "name": "product",
      "outputs": [
        {
          "name": "id",
          "type": "address"
        },
        {
          "name": "name",
          "type": "string"
        },
        {
          "name": "description",
          "type": "string"
        },
        {
          "name": "image",
          "type": "string"
        },
        {
          "name": "price",
          "type": "uint256"
        },
        {
          "name": "status",
          "type": "uint8"
        }
      ],
      "payable": false,
      "stateMutability": "view",
      "type": "function"
    },
    {
      "constant": true,
      "inputs": [],
      "name": "state",
      "outputs": [
        {
          "name": "",
          "type": "uint8"
        }
      ],
      "payable": false,
      "stateMutability": "view",
      "type": "function"
    },
    {
      "constant": true,
      "inputs": [],
      "name": "mainContract",
      "outputs": [
        {
          "name": "",
          "type": "address"
        }
      ],
      "payable": false,
      "stateMutability": "view",
      "type": "function"
    },
    {
      "constant": true,
      "inputs": [],
      "name": "admin",
      "outputs": [
        {
          "name": "",
          "type": "address"
        }
      ],
      "payable": false,
      "stateMutability": "view",
      "type": "function"
    },
    {
      "inputs": [
        {
          "name": "_mainContract",
          "type": "address"
        },
        {
          "name": "_name",
          "type": "string"
        },
        {
          "name": "_description",
          "type": "string"
        },
        {
          "name": "_image",
          "type": "string"
        }
      ],
      "payable": false,
      "stateMutability": "nonpayable",
      "type": "constructor"
    },
    {
      "anonymous": false,
      "inputs": [
        {
          "indexed": false,
          "name": "_expired",
          "type": "bool"
        }
      ],
      "name": "SessionExpiredEvent",
      "type": "event"
    },
    {
      "constant": false,
      "inputs": [
        {
          "name": "_name",
          "type": "string"
        },
        {
          "name": "_description",
          "type": "string"
        },
        {
          "name": "_image",
          "type": "string"
        }
      ],
      "name": "addProduct",
      "outputs": [],
      "payable": false,
      "stateMutability": "nonpayable",
      "type": "function"
    },
    {
      "constant": false,
      "inputs": [],
      "name": "stopSession",
      "outputs": [],
      "payable": false,
      "stateMutability": "nonpayable",
      "type": "function"
    },
    {
      "constant": false,
      "inputs": [
        {
          "name": "_time",
          "type": "uint256"
        }
      ],
      "name": "startSession",
      "outputs": [],
      "payable": false,
      "stateMutability": "nonpayable",
      "type": "function"
    },
    {
      "constant": false,
      "inputs": [
        {
          "name": "_price",
          "type": "uint256"
        }
      ],
      "name": "pricing",
      "outputs": [],
      "payable": false,
      "stateMutability": "nonpayable",
      "type": "function"
    },
    {
      "constant": false,
      "inputs": [],
      "name": "closeSession",
      "outputs": [],
      "payable": false,
      "stateMutability": "nonpayable",
      "type": "function"
    }
  ],
  "bytecode": "0x60806040526000600260146101000a81548160ff021916908360038111156200002457fe5b0217905550600060045560006007553480156200004057600080fd5b5060405162001c5938038062001c5983398101806040528101908080519060200190929190805182019291906020018051820192919060200180518201929190505050836000806101000a81548173ffffffffffffffffffffffffffffffffffffffff021916908373ffffffffffffffffffffffffffffffffffffffff16021790555030600160006101000a81548173ffffffffffffffffffffffffffffffffffffffff021916908373ffffffffffffffffffffffffffffffffffffffff16021790555083600260006101000a81548173ffffffffffffffffffffffffffffffffffffffff021916908373ffffffffffffffffffffffffffffffffffffffff160217905550600260009054906101000a900473ffffffffffffffffffffffffffffffffffffffff1673ffffffffffffffffffffffffffffffffffffffff16636e9960c36040518163ffffffff167c0100000000000000000000000000000000000000000000000000000000028152600401602060405180830381600087803b158015620001cc57600080fd5b505af1158015620001e1573d6000803e3d6000fd5b505050506040513d6020811015620001f857600080fd5b8101908080519060200190929190505050600360006101000a81548173ffffffffffffffffffffffffffffffffffffffff021916908373ffffffffffffffffffffffffffffffffffffffff160217905550600260009054906101000a900473ffffffffffffffffffffffffffffffffffffffff1673ffffffffffffffffffffffffffffffffffffffff1663f390dd86600160009054906101000a900473ffffffffffffffffffffffffffffffffffffffff166040518263ffffffff167c0100000000000000000000000000000000000000000000000000000000028152600401808273ffffffffffffffffffffffffffffffffffffffff1673ffffffffffffffffffffffffffffffffffffffff168152602001915050600060405180830381600087803b1580156200032957600080fd5b505af11580156200033e573d6000803e3d6000fd5b505050506200035e83838362000368640100000000026401000000009004565b5050505062000569565b3373ffffffffffffffffffffffffffffffffffffffff16600360009054906101000a900473ffffffffffffffffffffffffffffffffffffffff1673ffffffffffffffffffffffffffffffffffffffff16141515620003c557600080fd5b8260086001019080519060200190620003e0929190620004ba565b508160086002019080519060200190620003fc929190620004ba565b50806008600301908051906020019062000418929190620004ba565b50600160009054906101000a900473ffffffffffffffffffffffffffffffffffffffff16600860000160006101000a81548173ffffffffffffffffffffffffffffffffffffffff021916908373ffffffffffffffffffffffffffffffffffffffff160217905550600260149054906101000a900460ff16600860050160006101000a81548160ff02191690836003811115620004b057fe5b0217905550505050565b828054600181600116156101000203166002900490600052602060002090601f016020900481019282601f10620004fd57805160ff19168380011785556200052e565b828001600101855582156200052e579182015b828111156200052d57825182559160200191906001019062000510565b5b5090506200053d919062000541565b5090565b6200056691905b808211156200056257600081600090555060010162000548565b5090565b90565b6116e080620005796000396000f3006080604052600436106100d0576000357c0100000000000000000000000000000000000000000000000000000000900463ffffffff16806306f4bcbf146100d55780630e34b00e146100ec5780632605b3c7146101e1578063614d85e1146102725780636945d8001461029d57806377127612146102ca578063a3b9c9e5146102f7578063a6d861a714610364578063b63bc3b4146103bb578063bf9ce952146103e6578063c19d93fb1461059d578063cbd8c613146105d6578063d270e7ab146105ed578063f851a44014610644575b600080fd5b3480156100e157600080fd5b506100ea61069b565b005b3480156100f857600080fd5b506101df600480360381019080803590602001908201803590602001908080601f0160208091040260200160405190810160405280939291908181526020018383808284378201915050505050509192919290803590602001908201803590602001908080601f0160208091040260200160405190810160405280939291908181526020018383808284378201915050505050509192919290803590602001908201803590602001908080601f016020809104026020016040519081016040528093929190818152602001838380828437820191505050505050919291929050505061091f565b005b3480156101ed57600080fd5b50610222600480360381019080803573ffffffffffffffffffffffffffffffffffffffff169060200190929190505050610a69565b604051808473ffffffffffffffffffffffffffffffffffffffff1673ffffffffffffffffffffffffffffffffffffffff168152602001838152602001828152602001935050505060405180910390f35b34801561027e57600080fd5b50610287610ab3565b6040518082815260200191505060405180910390f35b3480156102a957600080fd5b506102c860048036038101908080359060200190929190505050610ab9565b005b3480156102d657600080fd5b506102f560048036038101908080359060200190929190505050610ff7565b005b34801561030357600080fd5b50610322600480360381019080803590602001909291905050506110e7565b604051808273ffffffffffffffffffffffffffffffffffffffff1673ffffffffffffffffffffffffffffffffffffffff16815260200191505060405180910390f35b34801561037057600080fd5b50610379611125565b604051808273ffffffffffffffffffffffffffffffffffffffff1673ffffffffffffffffffffffffffffffffffffffff16815260200191505060405180910390f35b3480156103c757600080fd5b506103d061114b565b6040518082815260200191505060405180910390f35b3480156103f257600080fd5b506103fb611151565b604051808773ffffffffffffffffffffffffffffffffffffffff1673ffffffffffffffffffffffffffffffffffffffff16815260200180602001806020018060200186815260200185600381111561044f57fe5b60ff168152602001848103845289818151815260200191508051906020019080838360005b8381101561048f578082015181840152602081019050610474565b50505050905090810190601f1680156104bc5780820380516001836020036101000a031916815260200191505b50848103835288818151815260200191508051906020019080838360005b838110156104f55780820151818401526020810190506104da565b50505050905090810190601f1680156105225780820380516001836020036101000a031916815260200191505b50848103825287818151815260200191508051906020019080838360005b8381101561055b578082015181840152602081019050610540565b50505050905090810190601f1680156105885780820380516001836020036101000a031916815260200191505b50995050505050505050505060405180910390f35b3480156105a957600080fd5b506105b2611370565b604051808260038111156105c257fe5b60ff16815260200191505060405180910390f35b3480156105e257600080fd5b506105eb611383565b005b3480156105f957600080fd5b50610602611460565b604051808273ffffffffffffffffffffffffffffffffffffffff1673ffffffffffffffffffffffffffffffffffffffff16815260200191505060405180910390f35b34801561065057600080fd5b50610659611485565b604051808273ffffffffffffffffffffffffffffffffffffffff1673ffffffffffffffffffffffffffffffffffffffff16815260200191505060405180910390f35b60008060008060003373ffffffffffffffffffffffffffffffffffffffff16600360009054906101000a900473ffffffffffffffffffffffffffffffffffffffff1673ffffffffffffffffffffffffffffffffffffffff161415156106ff57600080fd5b6001600381111561070c57fe5b600260149054906101000a900460ff16600381111561072757fe5b14151561073357600080fd5b6003600260146101000a81548160ff0219169083600381111561075257fe5b02179055506003600860050160006101000a81548160ff0219169083600381111561077957fe5b02179055506107866114ab565b945084600860040181905550600093505b600754841015610918576005848154811015156107b057fe5b9060005260206000200160009054906101000a900473ffffffffffffffffffffffffffffffffffffffff169250600660008473ffffffffffffffffffffffffffffffffffffffff1673ffffffffffffffffffffffffffffffffffffffff16815260200190815260200160002060020154915061082c82866115dc565b9050600260009054906101000a900473ffffffffffffffffffffffffffffffffffffffff1673ffffffffffffffffffffffffffffffffffffffff1663c454fde884836040518363ffffffff167c0100000000000000000000000000000000000000000000000000000000028152600401808373ffffffffffffffffffffffffffffffffffffffff1673ffffffffffffffffffffffffffffffffffffffff16815260200182815260200192505050600060405180830381600087803b1580156108f357600080fd5b505af1158015610907573d6000803e3d6000fd5b505050508380600101945050610797565b5050505050565b3373ffffffffffffffffffffffffffffffffffffffff16600360009054906101000a900473ffffffffffffffffffffffffffffffffffffffff1673ffffffffffffffffffffffffffffffffffffffff1614151561097b57600080fd5b826008600101908051906020019061099492919061160f565b5081600860020190805190602001906109ae92919061160f565b5080600860030190805190602001906109c892919061160f565b50600160009054906101000a900473ffffffffffffffffffffffffffffffffffffffff16600860000160006101000a81548173ffffffffffffffffffffffffffffffffffffffff021916908373ffffffffffffffffffffffffffffffffffffffff160217905550600260149054906101000a900460ff16600860050160006101000a81548160ff02191690836003811115610a5f57fe5b0217905550505050565b60066020528060005260406000206000915090508060000160009054906101000a900473ffffffffffffffffffffffffffffffffffffffff16908060010154908060020154905083565b60045481565b60008060026003811115610ac957fe5b600260149054906101000a900460ff166003811115610ae457fe5b141515610af057600080fd5b339150600260009054906101000a900473ffffffffffffffffffffffffffffffffffffffff1673ffffffffffffffffffffffffffffffffffffffff1663a230c524836040518263ffffffff167c0100000000000000000000000000000000000000000000000000000000028152600401808273ffffffffffffffffffffffffffffffffffffffff1673ffffffffffffffffffffffffffffffffffffffff168152602001915050602060405180830381600087803b158015610bb057600080fd5b505af1158015610bc4573d6000803e3d6000fd5b505050506040513d6020811015610bda57600080fd5b81019080805190602001909291905050501515610bf657600080fd5b600060045414158015610c0b57504260045411155b15610c9c576001600260146101000a81548160ff02191690836003811115610c2f57fe5b02179055506001600860050160006101000a81548160ff02191690836003811115610c5657fe5b02179055507f7482fc53db3ee57e7f38be55635c1b1c832410e486cea2154c335662de01b1796001604051808215151515815260200191505060405180910390a1610ff2565b7f7482fc53db3ee57e7f38be55635c1b1c832410e486cea2154c335662de01b1796000604051808215151515815260200191505060405180910390a18173ffffffffffffffffffffffffffffffffffffffff16600660008473ffffffffffffffffffffffffffffffffffffffff1673ffffffffffffffffffffffffffffffffffffffff16815260200190815260200160002060000160009054906101000a900473ffffffffffffffffffffffffffffffffffffffff1673ffffffffffffffffffffffffffffffffffffffff16141515610faa57600260009054906101000a900473ffffffffffffffffffffffffffffffffffffffff1673ffffffffffffffffffffffffffffffffffffffff1663a33a08b9836040518263ffffffff167c0100000000000000000000000000000000000000000000000000000000028152600401808273ffffffffffffffffffffffffffffffffffffffff1673ffffffffffffffffffffffffffffffffffffffff168152602001915050602060405180830381600087803b158015610e2c57600080fd5b505af1158015610e40573d6000803e3d6000fd5b505050506040513d6020811015610e5657600080fd5b8101908080519060200190929190505050905081600660008473ffffffffffffffffffffffffffffffffffffffff1673ffffffffffffffffffffffffffffffffffffffff16815260200190815260200160002060000160006101000a81548173ffffffffffffffffffffffffffffffffffffffff021916908373ffffffffffffffffffffffffffffffffffffffff16021790555080600660008473ffffffffffffffffffffffffffffffffffffffff1673ffffffffffffffffffffffffffffffffffffffff1681526020019081526020016000206001018190555060058290806001815401808255809150509060018203906000526020600020016000909192909190916101000a81548173ffffffffffffffffffffffffffffffffffffffff021916908373ffffffffffffffffffffffffffffffffffffffff160217905550506007600081548092919060010191905055505b82600660008473ffffffffffffffffffffffffffffffffffffffff1673ffffffffffffffffffffffffffffffffffffffff168152602001908152602001600020600201819055505b505050565b6000600381111561100457fe5b600260149054906101000a900460ff16600381111561101f57fe5b14151561102b57600080fd5b3373ffffffffffffffffffffffffffffffffffffffff16600360009054906101000a900473ffffffffffffffffffffffffffffffffffffffff1673ffffffffffffffffffffffffffffffffffffffff1614151561108757600080fd5b600081111561109a578042016004819055505b60028060146101000a81548160ff021916908360038111156110b857fe5b02179055506002600860050160006101000a81548160ff021916908360038111156110df57fe5b021790555050565b6005818154811015156110f657fe5b906000526020600020016000915054906101000a900473ffffffffffffffffffffffffffffffffffffffff1681565b600160009054906101000a900473ffffffffffffffffffffffffffffffffffffffff1681565b60075481565b60088060000160009054906101000a900473ffffffffffffffffffffffffffffffffffffffff1690806001018054600181600116156101000203166002900480601f0160208091040260200160405190810160405280929190818152602001828054600181600116156101000203166002900480156112115780601f106111e657610100808354040283529160200191611211565b820191906000526020600020905b8154815290600101906020018083116111f457829003601f168201915b505050505090806002018054600181600116156101000203166002900480601f0160208091040260200160405190810160405280929190818152602001828054600181600116156101000203166002900480156112af5780601f10611284576101008083540402835291602001916112af565b820191906000526020600020905b81548152906001019060200180831161129257829003601f168201915b505050505090806003018054600181600116156101000203166002900480601f01602080910402602001604051908101604052809291908181526020018280546001816001161561010002031660029004801561134d5780601f106113225761010080835404028352916020019161134d565b820191906000526020600020905b81548152906001019060200180831161133057829003601f168201915b5050505050908060040154908060050160009054906101000a900460ff16905086565b600260149054906101000a900460ff1681565b6002600381111561139057fe5b600260149054906101000a900460ff1660038111156113ab57fe5b1415156113b757600080fd5b3373ffffffffffffffffffffffffffffffffffffffff16600360009054906101000a900473ffffffffffffffffffffffffffffffffffffffff1673ffffffffffffffffffffffffffffffffffffffff1614151561141357600080fd5b6001600260146101000a81548160ff0219169083600381111561143257fe5b02179055506001600860050160006101000a81548160ff0219169083600381111561145957fe5b0217905550565b6000809054906101000a900473ffffffffffffffffffffffffffffffffffffffff1681565b600360009054906101000a900473ffffffffffffffffffffffffffffffffffffffff1681565b60008060008060008060008060075414156114c957600096506115d3565b600093505b6007548410156115ba576005848154811015156114e757fe5b9060005260206000200160009054906101000a900473ffffffffffffffffffffffffffffffffffffffff169250600660008473ffffffffffffffffffffffffffffffffffffffff1673ffffffffffffffffffffffffffffffffffffffff168152602001908152602001600020600201549150600660008473ffffffffffffffffffffffffffffffffffffffff1673ffffffffffffffffffffffffffffffffffffffff16815260200190815260200160002060010154905080606403820286019550808501945083806001019450506114ce565b8460075460640203945084868115156115cf57fe5b0496505b50505050505090565b600080828411156115f15782840390506115f7565b83830390505b826064820281151561160557fe5b0491505092915050565b828054600181600116156101000203166002900490600052602060002090601f016020900481019282601f1061165057805160ff191683800117855561167e565b8280016001018555821561167e579182015b8281111561167d578251825591602001919060010190611662565b5b50905061168b919061168f565b5090565b6116b191905b808211156116ad576000816000905550600101611695565b5090565b905600a165627a7a7230582058658e2e830d6f456982ece57c3b3c598a8b0770f9ae81b388d627bdcf9bb3ec0029",
  "source": "pragma solidity ^0.4.17;\r\n// Interface of Main contract to call from Session contract\r\ncontract Main {\r\n    // Structure to hold details of Bidder\r\n    function addSession(address _session) public {}\r\n    function getAdmin() public view returns(address) {}\r\n    function getDeviation(address _address) public view returns(uint) {}\r\n    function updateInfor(address _address, uint _newDevi) public {}\r\n    function isMember(address _address) public view returns(bool) {}\r\n}\r\n\r\ncontract Session {\r\n    // Variable to hold Main Contract Address when create new Session Contract\r\n    address public mainContract;\r\n    address public sessionContract;\r\n    // Variable to hold Main Contract instance to call functions from Main\r\n    Main MainContract;\r\n    // TODO: Variable\r\n    enum StateOfSession { STARTED, STOPED, PRICING, CLOSED }\r\n    StateOfSession public state = StateOfSession.STARTED;\r\n    address public admin;\r\n    // Struct to hold details information of participant join pricing\r\n    struct IParticipant {\r\n        address account;\r\n        uint deviation;\r\n        uint price;\r\n    }\r\n    uint public timeOut = 0;\r\n    // List contain all account join pricing session.\r\n    address[] public iParticipants;\r\n    mapping(address => IParticipant) public participant;\r\n    uint public nParticipants = 0;\r\n    // Struct to hold details of product\r\n    struct Product {\r\n        address id;\r\n        string name;\r\n        string description;\r\n        string image;\r\n        uint price;\r\n        StateOfSession status;\r\n    }\r\n\r\n    Product public product;\r\n    event SessionExpiredEvent(bool _expired);\r\n\r\n    constructor(address _mainContract, string memory _name, string memory _description, string memory _image) public {\r\n        mainContract = _mainContract;\r\n        sessionContract = address(this);\r\n        // Get Main Contract instance\r\n        MainContract = Main(_mainContract);\r\n        admin = MainContract.getAdmin();\r\n        // TODO: Init Session contract\r\n        // Call Main Contract function to link current contract.\r\n        MainContract.addSession(sessionContract);\r\n        addProduct(_name, _description, _image);\r\n    }\r\n\r\n    // TODO: Functions\r\n\r\n    // Add new product\r\n    function addProduct(string memory _name, string memory _description, string memory _image)\r\n        public onlyAdmin(){\r\n        // Add information for product\r\n        product.name = _name;\r\n        product.description = _description;\r\n        product.image = _image;\r\n        product.id = sessionContract;\r\n        product.status = state;\r\n    }\r\n\r\n    /**\r\n     *  Just only admin can be stop pricing session.\r\n     *  And current state is not pricing\r\n     */\r\n    function stopSession() public statePricing() onlyAdmin() {\r\n        state = StateOfSession.STOPED;\r\n        product.status = StateOfSession.STOPED;\r\n    }\r\n\r\n    /**\r\n     * Just only admin can be start pricing session.\r\n     * And current state is started\r\n     */\r\n    function startSession(uint _time) public stateStarted() onlyAdmin() {\r\n        if(_time > 0) {\r\n            timeOut = now + _time;\r\n        }\r\n        state = StateOfSession.PRICING;\r\n        product.status = StateOfSession.PRICING;\r\n    }\r\n\r\n    /**\r\n     * For participant pricing product when session started\r\n    */\r\n    function pricing(uint _price) public statePricing() {\r\n        address _address = msg.sender;\r\n        // Only member had been register just can pricing\r\n        require(MainContract.isMember(_address));\r\n        // TimeOut < now => session expired\r\n        if(timeOut != 0 && timeOut <= now) {\r\n            state = StateOfSession.STOPED;\r\n            product.status = StateOfSession.STOPED;\r\n            emit SessionExpiredEvent(true);\r\n        } else {\r\n             // For participant have the pricing first time;\r\n            emit SessionExpiredEvent(false);\r\n            if(participant[_address].account != _address) {\r\n                uint _deviation = MainContract.getDeviation(_address);\r\n                participant[_address].account = _address;\r\n                participant[_address].deviation = _deviation;\r\n                iParticipants.push(_address);\r\n                nParticipants ++;\r\n            }\r\n            participant[_address].price = _price;\r\n        }\r\n    }\r\n\r\n    /**\r\n     * Clossing session when session had been stoped, and only admin can do\r\n     */\r\n    function closeSession() public onlyAdmin() stateStoped() {\r\n        state = StateOfSession.CLOSED;\r\n        product.status = StateOfSession.CLOSED;\r\n        uint _fPrice = calPrice(); // Calculate final price of project\r\n        product.price = _fPrice;\r\n        for(uint i = 0; i < nParticipants; i++) {\r\n            address _address = iParticipants[i]; // Address of participant\r\n            uint _uPrice =  participant[_address].price; //  Price of participant had been price for product\r\n            uint _newDevi = calDeviationNew(_uPrice, _fPrice);\r\n            MainContract.updateInfor(_address, _newDevi);\r\n        }\r\n    }\r\n\r\n    // Calculate proposed base on formula povider\r\n    function calPrice() private view returns (uint) {\r\n        if(nParticipants == 0) {\r\n            return 0;\r\n        }\r\n        uint _numerator;\r\n        uint _denominator;\r\n        for(uint i = 0; i < nParticipants; i++) {\r\n            address _address = iParticipants[i]; // Address of participant\r\n            uint _price =  participant[_address].price; //  Price of participant had been price for product\r\n            uint _deviation = participant[_address].deviation; // Deviation of participant\r\n            _numerator += _price * (100 - _deviation);\r\n            _denominator += _deviation;\r\n        }\r\n        _denominator = 100 * nParticipants - _denominator;\r\n        return _numerator/ uint(_denominator);\r\n    }\r\n\r\n    // Calculate new deviation for participant via current session\r\n    function calDeviationNew(uint _uPrice, uint _fPrice) private pure returns (uint) {\r\n        uint _numerator;\r\n        if (_uPrice > _fPrice) {\r\n            _numerator = _uPrice - _fPrice;\r\n        } else {\r\n            _numerator = _fPrice - _uPrice;\r\n        }\r\n        return _numerator * 100 / uint(_fPrice);\r\n    }\r\n\r\n    /**\r\n     * Modifier had used ----------------------- /////\r\n    */\r\n    // Only admin can do those actions.\r\n    modifier onlyAdmin() {\r\n        require(admin == msg.sender);\r\n        _;\r\n    }\r\n    // Only action when state is STATED\r\n    modifier stateStarted() {\r\n        require(state == StateOfSession.STARTED);\r\n        _;\r\n    }\r\n    // Only action when state is PRICING\r\n    modifier statePricing() {\r\n        require(state == StateOfSession.PRICING);\r\n        _;\r\n    }\r\n     // Only action when state is CLOSED\r\n    modifier stateStoped() {\r\n        require(state == StateOfSession.STOPED);\r\n        _;\r\n    }\r\n}\r\n\r\n",
  "sourcePath": "D:/FunixPricingChain_Project/Pricing-Blockchain/truffle/contracts/Session.sol",
  "compiler": {
    "name": "solc",
    "version": "0.4.26+commit.4563c3fc.Emscripten.clang"
  },
  "schemaVersion": "3.0.11",
  "updatedAt": "2020-01-09T17:21:04.060Z",
  "devdoc": {
    "methods": {}
  },
  "userdoc": {
    "methods": {
      "closeSession()": {
        "notice": "Clossing session when session had been stoped, and only admin can do\r"
      },
      "pricing(uint256)": {
        "notice": "For participant pricing product when session started\r"
      },
      "startSession(uint256)": {
        "notice": "Just only admin can be start pricing session.\r And current state is started\r"
      },
      "stopSession()": {
        "notice": "Just only admin can be stop pricing session.\r And current state is not pricing\r"
      }
    }
  }
}