{
  "contractName": "Session",
  "abi": [
    {
      "constant": true,
      "inputs": [
        {
          "name": "",
          "type": "address"
        }
      ],
      "name": "participant",
      "outputs": [
        {
          "name": "account",
          "type": "address"
        },
        {
          "name": "deviation",
          "type": "uint256"
        },
        {
          "name": "price",
          "type": "uint256"
        }
      ],
      "payable": false,
      "stateMutability": "view",
      "type": "function"
    },
    {
      "constant": true,
      "inputs": [
        {
          "name": "",
          "type": "uint256"
        }
      ],
      "name": "iParticipants",
      "outputs": [
        {
          "name": "",
          "type": "address"
        }
      ],
      "payable": false,
      "stateMutability": "view",
      "type": "function"
    },
    {
      "constant": true,
      "inputs": [],
      "name": "sessionContract",
      "outputs": [
        {
          "name": "",
          "type": "address"
        }
      ],
      "payable": false,
      "stateMutability": "view",
      "type": "function"
    },
    {
      "constant": true,
      "inputs": [],
      "name": "nParticipants",
      "outputs": [
        {
          "name": "",
          "type": "uint256"
        }
      ],
      "payable": false,
      "stateMutability": "view",
      "type": "function"
    },
    {
      "constant": true,
      "inputs": [],
      "name": "product",
      "outputs": [
        {
          "name": "id",
          "type": "address"
        },
        {
          "name": "name",
          "type": "string"
        },
        {
          "name": "description",
          "type": "string"
        },
        {
          "name": "image",
          "type": "string"
        },
        {
          "name": "price",
          "type": "uint256"
        },
        {
          "name": "status",
          "type": "uint8"
        }
      ],
      "payable": false,
      "stateMutability": "view",
      "type": "function"
    },
    {
      "constant": true,
      "inputs": [],
      "name": "state",
      "outputs": [
        {
          "name": "",
          "type": "uint8"
        }
      ],
      "payable": false,
      "stateMutability": "view",
      "type": "function"
    },
    {
      "constant": true,
      "inputs": [],
      "name": "mainContract",
      "outputs": [
        {
          "name": "",
          "type": "address"
        }
      ],
      "payable": false,
      "stateMutability": "view",
      "type": "function"
    },
    {
      "constant": true,
      "inputs": [],
      "name": "admin",
      "outputs": [
        {
          "name": "",
          "type": "address"
        }
      ],
      "payable": false,
      "stateMutability": "view",
      "type": "function"
    },
    {
      "inputs": [
        {
          "name": "_mainContract",
          "type": "address"
        },
        {
          "name": "_name",
          "type": "string"
        },
        {
          "name": "_description",
          "type": "string"
        },
        {
          "name": "_image",
          "type": "string"
        }
      ],
      "payable": false,
      "stateMutability": "nonpayable",
      "type": "constructor"
    },
    {
      "constant": false,
      "inputs": [
        {
          "name": "_name",
          "type": "string"
        },
        {
          "name": "_description",
          "type": "string"
        },
        {
          "name": "_image",
          "type": "string"
        }
      ],
      "name": "addProduct",
      "outputs": [],
      "payable": false,
      "stateMutability": "nonpayable",
      "type": "function"
    },
    {
      "constant": false,
      "inputs": [],
      "name": "stopSession",
      "outputs": [],
      "payable": false,
      "stateMutability": "nonpayable",
      "type": "function"
    },
    {
      "constant": false,
      "inputs": [],
      "name": "startSession",
      "outputs": [],
      "payable": false,
      "stateMutability": "nonpayable",
      "type": "function"
    },
    {
      "constant": false,
      "inputs": [
        {
          "name": "_price",
          "type": "uint256"
        }
      ],
      "name": "pricing",
      "outputs": [],
      "payable": false,
      "stateMutability": "nonpayable",
      "type": "function"
    },
    {
      "constant": false,
      "inputs": [],
      "name": "closeSession",
      "outputs": [],
      "payable": false,
      "stateMutability": "nonpayable",
      "type": "function"
    }
  ],
  "bytecode": "0x60806040526000600260146101000a81548160ff021916908360038111156200002457fe5b021790555060006006553480156200003b57600080fd5b5060405162001b0b38038062001b0b83398101806040528101908080519060200190929190805182019291906020018051820192919060200180518201929190505050836000806101000a81548173ffffffffffffffffffffffffffffffffffffffff021916908373ffffffffffffffffffffffffffffffffffffffff16021790555030600160006101000a81548173ffffffffffffffffffffffffffffffffffffffff021916908373ffffffffffffffffffffffffffffffffffffffff16021790555083600260006101000a81548173ffffffffffffffffffffffffffffffffffffffff021916908373ffffffffffffffffffffffffffffffffffffffff160217905550600260009054906101000a900473ffffffffffffffffffffffffffffffffffffffff1673ffffffffffffffffffffffffffffffffffffffff16636e9960c36040518163ffffffff167c0100000000000000000000000000000000000000000000000000000000028152600401602060405180830381600087803b158015620001c757600080fd5b505af1158015620001dc573d6000803e3d6000fd5b505050506040513d6020811015620001f357600080fd5b8101908080519060200190929190505050600360006101000a81548173ffffffffffffffffffffffffffffffffffffffff021916908373ffffffffffffffffffffffffffffffffffffffff160217905550600260009054906101000a900473ffffffffffffffffffffffffffffffffffffffff1673ffffffffffffffffffffffffffffffffffffffff1663f390dd86600160009054906101000a900473ffffffffffffffffffffffffffffffffffffffff166040518263ffffffff167c0100000000000000000000000000000000000000000000000000000000028152600401808273ffffffffffffffffffffffffffffffffffffffff1673ffffffffffffffffffffffffffffffffffffffff168152602001915050600060405180830381600087803b1580156200032457600080fd5b505af115801562000339573d6000803e3d6000fd5b505050506200035983838362000363640100000000026401000000009004565b5050505062000564565b3373ffffffffffffffffffffffffffffffffffffffff16600360009054906101000a900473ffffffffffffffffffffffffffffffffffffffff1673ffffffffffffffffffffffffffffffffffffffff16141515620003c057600080fd5b8260076001019080519060200190620003db929190620004b5565b508160076002019080519060200190620003f7929190620004b5565b50806007600301908051906020019062000413929190620004b5565b50600160009054906101000a900473ffffffffffffffffffffffffffffffffffffffff16600760000160006101000a81548173ffffffffffffffffffffffffffffffffffffffff021916908373ffffffffffffffffffffffffffffffffffffffff160217905550600260149054906101000a900460ff16600760050160006101000a81548160ff02191690836003811115620004ab57fe5b0217905550505050565b828054600181600116156101000203166002900490600052602060002090601f016020900481019282601f10620004f857805160ff191683800117855562000529565b8280016001018555821562000529579182015b82811115620005285782518255916020019190600101906200050b565b5b5090506200053891906200053c565b5090565b6200056191905b808211156200055d57600081600090555060010162000543565b5090565b90565b61159780620005746000396000f3006080604052600436106100c5576000357c0100000000000000000000000000000000000000000000000000000000900463ffffffff16806306f4bcbf146100ca5780630e34b00e146100e15780632605b3c7146101d65780636945d80014610267578063a3b9c9e514610294578063a6d861a714610301578063b63bc3b414610358578063bf9ce95214610383578063c19d93fb1461053a578063cbd8c61314610573578063d270e7ab1461058a578063f851a440146105e1578063fe0ae16514610638575b600080fd5b3480156100d657600080fd5b506100df61064f565b005b3480156100ed57600080fd5b506101d4600480360381019080803590602001908201803590602001908080601f0160208091040260200160405190810160405280939291908181526020018383808284378201915050505050509192919290803590602001908201803590602001908080601f0160208091040260200160405190810160405280939291908181526020018383808284378201915050505050509192919290803590602001908201803590602001908080601f01602080910402602001604051908101604052809392919081815260200183838082843782019150505050505091929192905050506108d3565b005b3480156101e257600080fd5b50610217600480360381019080803573ffffffffffffffffffffffffffffffffffffffff169060200190929190505050610a1d565b604051808473ffffffffffffffffffffffffffffffffffffffff1673ffffffffffffffffffffffffffffffffffffffff168152602001838152602001828152602001935050505060405180910390f35b34801561027357600080fd5b5061029260048036038101908080359060200190929190505050610a67565b005b3480156102a057600080fd5b506102bf60048036038101908080359060200190929190505050610ec2565b604051808273ffffffffffffffffffffffffffffffffffffffff1673ffffffffffffffffffffffffffffffffffffffff16815260200191505060405180910390f35b34801561030d57600080fd5b50610316610f00565b604051808273ffffffffffffffffffffffffffffffffffffffff1673ffffffffffffffffffffffffffffffffffffffff16815260200191505060405180910390f35b34801561036457600080fd5b5061036d610f26565b6040518082815260200191505060405180910390f35b34801561038f57600080fd5b50610398610f2c565b604051808773ffffffffffffffffffffffffffffffffffffffff1673ffffffffffffffffffffffffffffffffffffffff1681526020018060200180602001806020018681526020018560038111156103ec57fe5b60ff168152602001848103845289818151815260200191508051906020019080838360005b8381101561042c578082015181840152602081019050610411565b50505050905090810190601f1680156104595780820380516001836020036101000a031916815260200191505b50848103835288818151815260200191508051906020019080838360005b83811015610492578082015181840152602081019050610477565b50505050905090810190601f1680156104bf5780820380516001836020036101000a031916815260200191505b50848103825287818151815260200191508051906020019080838360005b838110156104f85780820151818401526020810190506104dd565b50505050905090810190601f1680156105255780820380516001836020036101000a031916815260200191505b50995050505050505050505060405180910390f35b34801561054657600080fd5b5061054f61114b565b6040518082600381111561055f57fe5b60ff16815260200191505060405180910390f35b34801561057f57600080fd5b5061058861115e565b005b34801561059657600080fd5b5061059f61123b565b604051808273ffffffffffffffffffffffffffffffffffffffff1673ffffffffffffffffffffffffffffffffffffffff16815260200191505060405180910390f35b3480156105ed57600080fd5b506105f6611260565b604051808273ffffffffffffffffffffffffffffffffffffffff1673ffffffffffffffffffffffffffffffffffffffff16815260200191505060405180910390f35b34801561064457600080fd5b5061064d611286565b005b60008060008060003373ffffffffffffffffffffffffffffffffffffffff16600360009054906101000a900473ffffffffffffffffffffffffffffffffffffffff1673ffffffffffffffffffffffffffffffffffffffff161415156106b357600080fd5b600160038111156106c057fe5b600260149054906101000a900460ff1660038111156106db57fe5b1415156106e757600080fd5b6003600260146101000a81548160ff0219169083600381111561070657fe5b02179055506003600760050160006101000a81548160ff0219169083600381111561072d57fe5b021790555061073a611362565b945084600760040181905550600093505b6006548410156108cc5760048481548110151561076457fe5b9060005260206000200160009054906101000a900473ffffffffffffffffffffffffffffffffffffffff169250600560008473ffffffffffffffffffffffffffffffffffffffff1673ffffffffffffffffffffffffffffffffffffffff1681526020019081526020016000206002015491506107e08286611493565b9050600260009054906101000a900473ffffffffffffffffffffffffffffffffffffffff1673ffffffffffffffffffffffffffffffffffffffff1663c454fde884836040518363ffffffff167c0100000000000000000000000000000000000000000000000000000000028152600401808373ffffffffffffffffffffffffffffffffffffffff1673ffffffffffffffffffffffffffffffffffffffff16815260200182815260200192505050600060405180830381600087803b1580156108a757600080fd5b505af11580156108bb573d6000803e3d6000fd5b50505050838060010194505061074b565b5050505050565b3373ffffffffffffffffffffffffffffffffffffffff16600360009054906101000a900473ffffffffffffffffffffffffffffffffffffffff1673ffffffffffffffffffffffffffffffffffffffff1614151561092f57600080fd5b82600760010190805190602001906109489291906114c6565b5081600760020190805190602001906109629291906114c6565b50806007600301908051906020019061097c9291906114c6565b50600160009054906101000a900473ffffffffffffffffffffffffffffffffffffffff16600760000160006101000a81548173ffffffffffffffffffffffffffffffffffffffff021916908373ffffffffffffffffffffffffffffffffffffffff160217905550600260149054906101000a900460ff16600760050160006101000a81548160ff02191690836003811115610a1357fe5b0217905550505050565b60056020528060005260406000206000915090508060000160009054906101000a900473ffffffffffffffffffffffffffffffffffffffff16908060010154908060020154905083565b60008060026003811115610a7757fe5b600260149054906101000a900460ff166003811115610a9257fe5b141515610a9e57600080fd5b339150600260009054906101000a900473ffffffffffffffffffffffffffffffffffffffff1673ffffffffffffffffffffffffffffffffffffffff1663a230c524836040518263ffffffff167c0100000000000000000000000000000000000000000000000000000000028152600401808273ffffffffffffffffffffffffffffffffffffffff1673ffffffffffffffffffffffffffffffffffffffff168152602001915050602060405180830381600087803b158015610b5e57600080fd5b505af1158015610b72573d6000803e3d6000fd5b505050506040513d6020811015610b8857600080fd5b81019080805190602001909291905050501515610ba457600080fd5b8173ffffffffffffffffffffffffffffffffffffffff16600560008473ffffffffffffffffffffffffffffffffffffffff1673ffffffffffffffffffffffffffffffffffffffff16815260200190815260200160002060000160009054906101000a900473ffffffffffffffffffffffffffffffffffffffff1673ffffffffffffffffffffffffffffffffffffffff16141515610e7657600260009054906101000a900473ffffffffffffffffffffffffffffffffffffffff1673ffffffffffffffffffffffffffffffffffffffff1663a33a08b9836040518263ffffffff167c0100000000000000000000000000000000000000000000000000000000028152600401808273ffffffffffffffffffffffffffffffffffffffff1673ffffffffffffffffffffffffffffffffffffffff168152602001915050602060405180830381600087803b158015610cf857600080fd5b505af1158015610d0c573d6000803e3d6000fd5b505050506040513d6020811015610d2257600080fd5b8101908080519060200190929190505050905081600560008473ffffffffffffffffffffffffffffffffffffffff1673ffffffffffffffffffffffffffffffffffffffff16815260200190815260200160002060000160006101000a81548173ffffffffffffffffffffffffffffffffffffffff021916908373ffffffffffffffffffffffffffffffffffffffff16021790555080600560008473ffffffffffffffffffffffffffffffffffffffff1673ffffffffffffffffffffffffffffffffffffffff1681526020019081526020016000206001018190555060048290806001815401808255809150509060018203906000526020600020016000909192909190916101000a81548173ffffffffffffffffffffffffffffffffffffffff021916908373ffffffffffffffffffffffffffffffffffffffff160217905550506006600081548092919060010191905055505b82600560008473ffffffffffffffffffffffffffffffffffffffff1673ffffffffffffffffffffffffffffffffffffffff16815260200190815260200160002060020181905550505050565b600481815481101515610ed157fe5b906000526020600020016000915054906101000a900473ffffffffffffffffffffffffffffffffffffffff1681565b600160009054906101000a900473ffffffffffffffffffffffffffffffffffffffff1681565b60065481565b60078060000160009054906101000a900473ffffffffffffffffffffffffffffffffffffffff1690806001018054600181600116156101000203166002900480601f016020809104026020016040519081016040528092919081815260200182805460018160011615610100020316600290048015610fec5780601f10610fc157610100808354040283529160200191610fec565b820191906000526020600020905b815481529060010190602001808311610fcf57829003601f168201915b505050505090806002018054600181600116156101000203166002900480601f01602080910402602001604051908101604052809291908181526020018280546001816001161561010002031660029004801561108a5780601f1061105f5761010080835404028352916020019161108a565b820191906000526020600020905b81548152906001019060200180831161106d57829003601f168201915b505050505090806003018054600181600116156101000203166002900480601f0160208091040260200160405190810160405280929190818152602001828054600181600116156101000203166002900480156111285780601f106110fd57610100808354040283529160200191611128565b820191906000526020600020905b81548152906001019060200180831161110b57829003601f168201915b5050505050908060040154908060050160009054906101000a900460ff16905086565b600260149054906101000a900460ff1681565b6002600381111561116b57fe5b600260149054906101000a900460ff16600381111561118657fe5b14151561119257600080fd5b3373ffffffffffffffffffffffffffffffffffffffff16600360009054906101000a900473ffffffffffffffffffffffffffffffffffffffff1673ffffffffffffffffffffffffffffffffffffffff161415156111ee57600080fd5b6001600260146101000a81548160ff0219169083600381111561120d57fe5b02179055506001600760050160006101000a81548160ff0219169083600381111561123457fe5b0217905550565b6000809054906101000a900473ffffffffffffffffffffffffffffffffffffffff1681565b600360009054906101000a900473ffffffffffffffffffffffffffffffffffffffff1681565b6000600381111561129357fe5b600260149054906101000a900460ff1660038111156112ae57fe5b1415156112ba57600080fd5b3373ffffffffffffffffffffffffffffffffffffffff16600360009054906101000a900473ffffffffffffffffffffffffffffffffffffffff1673ffffffffffffffffffffffffffffffffffffffff1614151561131657600080fd5b60028060146101000a81548160ff0219169083600381111561133457fe5b02179055506002600760050160006101000a81548160ff0219169083600381111561135b57fe5b0217905550565b6000806000806000806000806006541415611380576000965061148a565b600093505b6006548410156114715760048481548110151561139e57fe5b9060005260206000200160009054906101000a900473ffffffffffffffffffffffffffffffffffffffff169250600560008473ffffffffffffffffffffffffffffffffffffffff1673ffffffffffffffffffffffffffffffffffffffff168152602001908152602001600020600201549150600560008473ffffffffffffffffffffffffffffffffffffffff1673ffffffffffffffffffffffffffffffffffffffff1681526020019081526020016000206001015490508060640382028601955080850194508380600101945050611385565b84600654606402039450848681151561148657fe5b0496505b50505050505090565b600080828411156114a85782840390506114ae565b83830390505b82606482028115156114bc57fe5b0491505092915050565b828054600181600116156101000203166002900490600052602060002090601f016020900481019282601f1061150757805160ff1916838001178555611535565b82800160010185558215611535579182015b82811115611534578251825591602001919060010190611519565b5b5090506115429190611546565b5090565b61156891905b8082111561156457600081600090555060010161154c565b5090565b905600a165627a7a72305820dc585801a691569ebb75eec2854f60c4be17518919b1cbd776a7363417c138490029",
  "source": "pragma solidity ^0.4.17;\n// Interface of Main contract to call from Session contract\ncontract Main {\n    // Structure to hold details of Bidder\n    function addSession(address _session) public {}\n    function getAdmin() public returns(address) {}\n    function getDeviation(address _address) public returns(uint) {}\n    function updateInfor(address _address, uint _newDevi) public {}\n    function isMember(address _address) public returns(bool) {}\n}\n\ncontract Session {\n    // Variable to hold Main Contract Address when create new Session Contract\n    address public mainContract;\n    address public sessionContract;\n    // Variable to hold Main Contract instance to call functions from Main\n    Main MainContract;\n    // TODO: Variable\n    enum StateOfSession { STARTED, STOPED, PRICING, CLOSED }\n    StateOfSession public state = StateOfSession.STARTED;\n    address public admin;\n    // Struct to hold details information of participant join pricing\n    struct IParticipant {\n        address account;\n        uint deviation;\n        uint price;\n    }\n\n    // List contain all account join pricing session.\n    address[] public iParticipants;\n    mapping(address => IParticipant) public participant;\n    uint public nParticipants = 0;\n    // Struct to hold details of product\n    struct Product {\n        address id;\n        string name;\n        string description;\n        string image;\n        uint price;\n        StateOfSession status;\n    }\n\n    Product public product;\n\n    constructor(address _mainContract, string memory _name, string memory _description, string memory _image) public {\n        mainContract = _mainContract;\n        sessionContract = address(this);\n        // Get Main Contract instance\n        MainContract = Main(_mainContract);\n        admin = MainContract.getAdmin();\n        // TODO: Init Session contract\n        // Call Main Contract function to link current contract.\n        MainContract.addSession(sessionContract);\n        addProduct(_name, _description, _image);\n    }\n\n    // TODO: Functions\n\n    // Add new product\n    function addProduct(string memory _name, string memory _description, string memory _image)\n        public onlyAdmin(){\n        // Add information for product\n        product.name = _name;\n        product.description = _description;\n        product.image = _image;\n        product.id = sessionContract;\n        product.status = state;\n    }\n\n    /**\n     *  Just only admin can be stop pricing session.\n     *  And current state is not pricing\n     */\n    function stopSession() public statePricing() onlyAdmin() {\n        state = StateOfSession.STOPED;\n        product.status = StateOfSession.STOPED;\n    }\n\n    /**\n     * Just only admin can be start pricing session.\n     * And current state is started\n     */\n    function startSession() public stateStarted() onlyAdmin() {\n        state = StateOfSession.PRICING;\n        product.status = StateOfSession.PRICING;\n    }\n\n    /**\n     * For participant pricing product when session started\n    */\n    function pricing(uint _price) public statePricing() {\n        address _address = msg.sender;\n        // Only member had been register just can pricing\n        require(MainContract.isMember(_address));\n        // For participant have the pricing first time;\n        if(participant[_address].account != _address) {\n            uint _deviation = MainContract.getDeviation(_address);\n            participant[_address].account = _address;\n            participant[_address].deviation = _deviation;\n            iParticipants.push(_address);\n            nParticipants ++;\n        }\n        participant[_address].price = _price;\n    }\n\n    /**\n     * Clossing session when session had been stoped, and only admin can do\n     */\n    function closeSession() public onlyAdmin() stateStoped() {\n        state = StateOfSession.CLOSED;\n        product.status = StateOfSession.CLOSED;\n        uint _fPrice = calPrice(); // Calculate final price of project\n        product.price = _fPrice;\n        for(uint i = 0; i < nParticipants; i++) {\n            address _address = iParticipants[i]; // Address of participant\n            uint _uPrice =  participant[_address].price; //  Price of participant had been price for product\n            uint _newDevi = calDeviationNew(_uPrice, _fPrice);\n            MainContract.updateInfor(_address, _newDevi);\n        }\n    }\n\n    // Calculate proposed base on formula povider\n    function calPrice() private returns (uint) {\n        if(nParticipants == 0) {\n            return 0;\n        }\n        uint _numerator;\n        uint _denominator;\n        for(uint i = 0; i < nParticipants; i++) {\n            address _address = iParticipants[i]; // Address of participant\n            uint _price =  participant[_address].price; //  Price of participant had been price for product\n            uint _deviation = participant[_address].deviation; // Deviation of participant\n            _numerator += _price * (100 - _deviation);\n            _denominator += _deviation;\n        }\n        _denominator = 100 * nParticipants - _denominator;\n        return _numerator/ uint(_denominator);\n    }\n\n    // Calculate new deviation for participant via current session\n    function calDeviationNew(uint _uPrice, uint _fPrice) private returns (uint) {\n        uint _numerator;\n        if (_uPrice > _fPrice) {\n            _numerator = _uPrice - _fPrice;\n        } else {\n            _numerator = _fPrice - _uPrice;\n        }\n        return _numerator * 100 / uint(_fPrice);\n    }\n\n    /**\n     * Modifier had used ----------------------- /////\n    */\n    // Only admin can do those actions.\n    modifier onlyAdmin() {\n        require(admin == msg.sender);\n        _;\n    }\n    // Only action when state is STATED\n    modifier stateStarted() {\n        require(state == StateOfSession.STARTED);\n        _;\n    }\n    // Only action when state is PRICING\n    modifier statePricing() {\n        require(state == StateOfSession.PRICING);\n        _;\n    }\n     // Only action when state is CLOSED\n    modifier stateStoped() {\n        require(state == StateOfSession.STOPED);\n        _;\n    }\n}\n\n",
  "sourcePath": "D:/FunixPricingChain_Project/FunixPricingChain/truffle/contracts/Session.sol",
  "compiler": {
    "name": "solc",
    "version": "0.4.26+commit.4563c3fc.Emscripten.clang"
  },
  "schemaVersion": "3.0.11",
  "updatedAt": "2019-12-29T07:15:19.177Z",
  "devdoc": {
    "methods": {}
  },
  "userdoc": {
    "methods": {
      "closeSession()": {
        "notice": "Clossing session when session had been stoped, and only admin can do"
      },
      "pricing(uint256)": {
        "notice": "For participant pricing product when session started"
      },
      "startSession()": {
        "notice": "Just only admin can be start pricing session. And current state is started"
      },
      "stopSession()": {
        "notice": "Just only admin can be stop pricing session. And current state is not pricing"
      }
    }
  }
}